:020000040800F2
:10000000000000008900000800F002F800F02CF861
:100010000AA090E8000C82448344AAF10107DA4563
:1000200001D100F021F8AFF2090EBAE80F0013F089
:10003000010F18BFFB1A43F001031847200100000D
:10004000300100000023002400250026103A28BFBC
:1000500078C1FBD8520728BF30C148BF0B6070473A
:100060001FB51FBD10B510BD00F018F81146FFF701
:10007000F7FF00F065F800F036F803B4FFF7F2FF81
:1000800003BC00F057F80000DFF80CD000F058F87F
:10009000086042681047000000000120754600F02B
:1000A0002BF8AE4605006946534620F0070085460A
:1000B00018B020B500F024F8BDE820404FF000064D
:1000C0004FF000074FF000084FF0000B21F0070140
:1000D000AC46ACE8C009ACE8C009ACE8C009ACE883
:1000E000C0098D46704710B50446AFF30080204626
:1000F000BDE81040FFF7C1BF004870470000002076
:1001000000B54FF0160085B0694601AA0A60ABBE83
:100110000198002802BF0548C01D20F00700039980
:10012000029A049B05B000BD090000000000000019
:100130007047000001491820ABBEFEE72600020010
:1001400070B5044C044D29462046FFF7A1FF00205E
:1001500070BD000000B0000808ED00E06C01000870
:0C016000000000206000000044000008C7
:0400000508000009E6
:00000001FF
